:020000040800F2
:1080000088680020719F0108399D01083B9D010887
:10801000479D0108539D01085F9D01080000000075
:108020000000000000000000000000006B9D01083F
:108030006D9D0108000000006F9D0108719D010801
:108040008B9F01088B9F01088B9F01088B9F010864
:108050008B9F01088B9F010833E201088B9F010869
:108060008B9F01088B9F01088B9F01088B9F010844
:108070008B9F01088B9F01088B9F01088B9F010834
:108080008B9F01088B9F01088B9F01080000000057
:108090000000000000000000000000008B9F0108AD
:1080A0008B9F01088B9F01088B9F01088B9F010804
:1080B00059F701088B9F01088B9F01088B9F0108CE
:1080C0008B9F01088B9F01088B9F01088B9F0108E4
:1080D0008B9F0108FFC601082FC901084DCC01087C
:1080E0008B9F01088B9F01088B9F010800000000F7
:1080F0000000000000000000000000000000000080
:10810000000000000000000000000000000000006F
:1081100000000000000000008B9F01088B9F0108F9
:10812000DFF80CD018F096FB0048004777C4000831
:108130008868002070B58AB004460D46164616F0D1
:1081400088F9FFA2FEA1002003F009FB01231822F9
:10815000CDE9002303AB22463146284601F0A5FABB
:1081600003AA03A9012003F0FAFA02231822CDE999
:10817000002303AB22463146284601F096FA03AAB3
:1081800003A9022003F0EBFA03231822CDE9002310
:1081900003AB22463146284601F087FA03AA03A919
:1081A000032003F0DCFA0A2003F090F90AB070BD56
:1081B0002DE9F74F9CB004460D46204601F0B9FA70
:1081C0000746582106A817F038FE002611E00123C3
:1081D000572206EB460000EBC60006A9CDE90023B6
:1081E00001EB4003701CC2B220461E9901F05DFAFB
:1081F000761C042E01DABE42E9DB16F02AF94FF0B4
:1082000000084FF00109CA464FF0030B30E1BBF103
:10821000000F32D01BF0020F04D02A46294600205E
:1082200003F09DFA04A800210A4606C03B4608F167
:108230000102C7A104A818F0C3FD04AA6021002010
:1082400003F056FABBF1040F15D001260BE0701EA7
:1082500000EB400202EBC00006AA02EB4001F0B2C4
:1082600003F02AFA761C052E02DA781C8642EEDB31
:10827000484603F06DFB4FF0000B15F057FF0390DD
:10828000039800B9F4E003F011F90398162872D0AE
:1082900006DC0D2870D010286FD015286AD1C8E0F0
:1082A000182804D019286AD0FE28F7D1D4E0B8F1F4
:1082B000000F34D0A8F10108B9F1010F0BDDCA4657
:1082C000A9F10109504603F043FB484603F040FB87
:1082D0004FF0040B4EE0032610E0721E02EB420347
:1082E00003EBC20206AB03EB420106EB460202EBD4
:1082F000C60203EB420017F0EFFD761E002EECDC09
:1083000001231522CDE9002306AB08F10100C2B21A
:1083100020461E9901F0C9F94FF0010B2AE0042F05
:1083200001DABB4601E04FF0040B002614E0012304
:10833000152206EB460000EBC60006A9CDE9002396
:1083400001EB4003A7EB0B003044401CC2B22046B7
:108350001E9901F0AAF9761C5E45E8DBA7F1010839
:10836000042F02DABA46B94602E00420824681466A
:108370004FF0010B78E05DE06DE071E0FFE7781E03
:10838000404537DD08F10108B9F1040F0DDAB945B0
:108390000BDACA4609F10109504603F0D9FA4846FA
:1083A00003F0D6FA4FF0040B42E0002610E0721CF6
:1083B00002EB420303EBC20206AB03EB420106EB06
:1083C000460202EBC60203EB420017F085FD761C65
:1083D000042EECDB01231522CDE900230DF15A0315
:1083E00008F10100C2B220461E9901F05EF94FF07B
:1083F000010B1DE0002611E00123152206EB4600CB
:1084000000EBC60006A9CDE9002301EB4003701C78
:10841000C2B220461E9901F048F9761C042E01DAFA
:10842000BE42E9DB4FF000080120824681468346C8
:108430001AE000BF214608F10100C0B21E9AFFF702
:1084400079FE0D2802D11FB0BDE8F08F16F001F8BB
:108450004FF0030B08E000BF03F021F80D20F2E716
:1084600003F01DF81020EEE700BF03F018F800BF7E
:10847000CDE630B581B0ADF5805D05464FF4805155
:1084800001A817F0DAFC354A4FF4805101A800F03A
:108490005AFF04460D2C0DD015F0DBFF30A234A19D
:1084A000022003F05CF90A2003F010F801B00DF58A
:1084B000805D30BD41F203026A4431A101A8FFF79B
:1084C00077FEF3E730B581B0ADF5805D05464FF43A
:1084D000805101A817F0B1FC204A0C324FF48051B2
:1084E00001A800F030FF04460D2C0DD015F0B1FFAF
:1084F00026A22BA1022003F032F90A2002F0E6FFA7
:1085000001B00DF5805D30BD41F203026A4428A13F
:1085100001A8FFF74DFEF3E730B581B0ADF5805D02
:1085200005464FF4805101A817F087FC0B4A17321B
:108530004FF4805101A800F006FF04460D2C3DE0E9
:10854000A1BEBCC7C2BCCFEAC7E9A1BF0000000002
:10855000253032642F25303264000000B81702083D
:108560004E6F206469616C6564206E756D2100003A
:10857000C3BBD3D0D2D1B2A6B5E7BBB021000000B7
:10858000D2D1B2A6B5E7BBB0000000004E6F207597
:108590006E7265636569766564206E756D21000095
:1085A000C3BBD3D0CEB4BDD3B5E7BBB02100000070
:1085B000CEB4BDD3B5E7BBB0000000000DD015F0C0
:1085C00048FF33A237A1022003F0C9F80A2002F0C5
:1085D0007DFF01B00DF5805D30BD41F203026A44BC
:1085E00034A101A8FFF7E4FDF3E770B5054615F0E7
:1085F00030FF33A237A1022003F0B1F80A2002F0C5
:1086000065FF0446152C01D0204670BD354800F0AA
:1086100047FE34480C3000F043FE3248173000F07B
:108620003FFE31A232A1032003F099F80A2002F0A4
:108630004DFFEAE73EB504462A49203168462CC979
:108640002CC024E0684604F03BFA9DF80A00152887
:108650001AD100988168204688478DF80B009DF854
:108660000B00FE2803D09DF80B000D2806D12348EF
:108670000068234908609DF80B003EBD15F0E9FE37
:1086800001208DF8090002E09DF80A00F5E7D9E71E
:108690004E6F207265636569766564206E756D2125
:1086A00000000000C3BBD3D0D2D1BDD3B5E7BBB06F
:1086B00021000000D2D1BDD3B5E7BBB0000000005F
:1086C000436F6E6669726D2044656C6574652069E0
:1086D000743F0000C8B7C8CFC8ABB2BFC9BEB3FDB6
:1086E000C2F00000B817020844656C657465640048
:1086F000D2D1C8ABB2BFC9BEB3FD0000B4000020E8
:10870000B800002070B50446022C18D19548807D31
:1087100040F00100934988750846807D10F0020FF3
:1087200006D10D466B7D2A7DA968686803F0BEF806
:108730008C48807D40F002008A49887517E089489E
:10874000807D20F00100874988750846807D10F003
:10875000020F06D00D466B7D2A7DA968686803F07C
:10876000A5F88048807D20F002007E49887570BDA4
:1087700010B57C48807D10F0010F2ED017F05FF807
:108780007849086108460069C968884225D9754852
:1087900000697449C968401A7249096888421CD343
:1087A000704800696F49C8600C46637D227DA168EE
:1087B000606803F07BF82046807D10F0020F06D041
:1087C0002046807D20F002002146887505E065483E
:1087D000807D40F002006349887510BD70B5044685
:1087E0006048807D10F0020F06D05E4D6B7D2A7DC3
:1087F000A968686803F05AF85A48446005466B7DDA
:108800002A7DA968686803F051F82846807D40F009
:1088100002002946887517F012F82946C86070BD15
:1088200070B504464F48807D10F0020F06D04D4DC4
:108830006B7D2A7DA968686803F038F84948846030
:1088400005466B7D2A7DA968686803F02FF82846E5
:10885000807D40F002002946887516F0F0FF294619
:10886000C86070BD70B504463E48807D10F0020FB0
:1088700006D03C4D6B7D2A7DA968686803F016F828
:108880003848047505466B7D2A7DA968686803F041
:108890000DF82846807D40F002002946887516F0C4
:1088A000CEFF2946C86070BD70B504462D48807D56
:1088B00010F0020F06D02B4D6B7D2A7DA9686868E9
:1088C00002F0F4FF2748447505466B7D2A7DA968B0
:1088D000686802F0EBFF2846807D40F002002946E0
:1088E000887516F0ACFF2946C86070BD70B50446A7
:1088F0001C48807D10F0020F06D01A4D6B7D2A7D3A
:10890000A968686802F0D2FF1648046005466B7DCE
:108910002A7DA968686802F0C9FF2846807D40F07A
:1089200002002946887516F08AFF2946C86070BD86
:108930002DE9F04104460D4616461F46DDF8188025
:1089400008484460856001460E754F75C0F8008088
:1089500016F075FF03490861C860FD208875BDE801
:10896000F08100003000002070B505460C46A105DE
:10897000080C4022294614F068FC70BD70B505460D
:108980000C46A105080C4022294614F022FC70BDBB
:10899000F0B591B004460D462846E91705EB9171F4
:1089A0008910A5EB8101CEB23007060E01272846BB
:1089B000E91705EB917107EBA107394601A8FFF70D
:1089C000D3FF01A88119204617F086FA01A906F104
:1089D0000D00095C01AA401E105C01EB0020A08183
:1089E00001A906F10F00095C401E105C01EB00209C
:1089F000E08111B0F0BD08B501226946002014F0F5
:108A000024FC9DF8000008BD10B504462146002056
:108A100014F0A7FB10BDF0B591B000260027062486
:108A20001DE0214601A8FFF79FFF002513E001A8E4
:108A3000405D28B901A9681C085C08B9701C86B2A1
:108A4000781C87B2B7F5EF7F03DDB005000C11B0DD
:108A5000F0BDA81CC5B2402DE9DB601CC4B2142CCB
:108A6000DFDD0020F3E72DE9F04391B004460D4629
:108A700016464FF0000901277FE0394601A8FFF7AD
:108A800073FF0DF1040898F8000058B9B9F1000F10
:108A900017D126B1781E002101EB800030704FF015
:108AA00001090EE02146404617F008FA48B925B101
:108AB000781E002101EB80002870032011B0BDE872
:108AC000F08308F1100898F8000058B9B9F1000FC8
:108AD00015D126B1781E012101EB800030704FF0D6
:108AE00001090CE02146404617F0E8F938B925B1F4
:108AF000781E012101EB800028700320DEE708F1D9
:108B0000100898F8000058B9B9F1000F15D126B136
:108B1000781E022101EB800030704FF002090CE05A
:108B20002146404617F0CAF938B925B1781E02210E
:108B300001EB800028700320C0E708F1100898F8C6
:108B4000000058B9B9F1000F15D126B1781E0321E4
:108B500001EB800030704FF001090CE021464046E7
:108B600017F0ACF938B925B1781E032101EB80006C
:108B700028700320A2E7781CC7B2052F7FF77DAFCE
:108B8000B9F1000F02D10EB1FF203070042095E73B
:108B900070B592B0044610AA11A92046FFF763FFF2
:108BA0000546042D05D1F8A018F0FAF8284612B0B1
:108BB00070BD9DF84400142804DBF3A018F0F0F811
:108BC0000120F4E701269DF84400C11700EB9171E4
:108BD00006EBA1069DF84400C11700EB91718910C6
:108BE000A0EB8101C9B211919DF844000007000E6D
:108BF000119031466846FFF7B7FE9DF844200DEB13
:108C000002000C22214617F0FFF8A08901129DF8FE
:108C100044000C300DF80010A089C1B29DF844004A
:108C20000D300DF80010E08901129DF844000E305F
:108C30000DF80010E089C1B29DF844000F300DF826
:108C4000001031466846FFF799FE1120AFE710B5D6
:108C5000FFF7D1FE0446142C01DA601CC4B2204692
:108C6000FFF7D2FE10BD70B50446A4F1150084B222
:108C70006004040C06252046E11704EB916105EB26
:108C8000A115E11704EB91618911A4EB81118CB25C
:108C9000C9480088A84205D02946C848FFF764FEA5
:108CA000C5480580C549601C085C095D00EB0120D2
:108CB00086B2304670BD70B504460D4605E02046CC
:108CC000FFF7D1FF0446681E85B2002DF7D120467C
:108CD00070BD70B504460D46288AC11700EB91613E
:108CE0008E11E8893146FFF7E6FF064631462046F9
:108CF000FFF73AFE70BD30B591B005462946B04841
:108D0000FFF73CFE294601A8FFF72EFE00240AE0EB
:108D100001A8005DAA49095D884202D0012011B076
:108D200030BD601CC4B2402CF2D30020F7E7F0B590
:108D300091B004460D46142C02DCA2A018F030F8C5
:108D4000A4F1150086B27004070C3846F91707EB3A
:108D5000916189118E1DF91707EB91618911A7EBBC
:108D600081118FB2314601A8FFF7FEFD281201A93B
:108D7000C85501AA781C1554314601A8FFF7FEFD1D
:108D800011B0F0BDF0B591B000260027062431E007
:108D9000214601A8FFF7E8FD002527E001A8405D76
:108DA000D0B901A9681C085CB0B9284605EBD5719B
:108DB000A21F152303EB421202EB61018EB2304673
:108DC000FFF799FF012804D10F213046FFF7AFFFCD
:108DD00002E0304611B0F0BD781C87B2B7F5F07FE5
:108DE00002DB4FF6FF70F5E7A81CC5B2402DD5DBBE
:108DF000601CC4B2142CCBDD4FF6FF70EAE770B5EF
:108E000090B00446A4F1150084B26004040C062559
:108E10002046E11704EB916105EBA115E11704EB86
:108E200091618911A4EB81118CB229466846FFF744
:108E30009BFD601C1DF800001DF8041000EB0120D4
:108E400086B200200DF804000021601C0DF800100F
:108E500029466846FFF792FD304610B070BD70B5E8
:108E60000446E589142D00DC70BD03E02846FFF7B9
:108E7000C6FF0546142DF9DC2846FFF7C0FFF3E7CF
:108E800030B593B0044611AA12A92046FFF7EBFDB6
:108E90000546042D02D1284613B030BD9DF8480088
:108EA000142802DB50A017F07BFF012011909DF8E1
:108EB0004800C11700EB91719DF8442002EBA1011D
:108EC000C9B211919DF84800C11700EB917189104A
:108ED000A0EB8101C9B212919DF848000007000E75
:108EE00012909DF8441001A8FFF73EFD01A99DF8DE
:108EF00048208818102116F0A0FF9DF8441001A802
:108F0000FFF73CFD1120C7E710B5FFF774FD0446DD
:108F10000CB1601EC4B22046FFF776FD10BD10B53F
:108F200004462046FFF79BFF2046FFF7A9FFFFF707
:108F3000EBFF10BD10B5002405E021463448FFF7D3
:108F40001DFD601CC4B2152CF7DB10BD30B593B00D
:108F500004460D46204616F0A9FF0B2802D9122020
:108F600013B030BDFFF747FD02909DF808001428AC
:108F700001DB0120F4E701AA02A92046FFF773FDF7
:108F8000032847D1ECE700005B456570726F6D46C2
:108F9000696C65206572726F725D3D456570726FB8
:108FA0006D46696C655F53617665456670417474A2
:108FB00069627574650D0A0048000020440B0020AA
:108FC000241802085B456570726F6D46696C6520F8
:108FD0006572726F725D3D53657450616765417271
:108FE00065610D0A000000005B456570726F6D469B
:108FF000696C65206572726F725D3D44656C657465
:109000006545667041747469627574650D0A000087
:10901000E41702089DF80400FF2801D101209FE712
:109020009DF80400C11700EB91718910A0EB81013C
:10903000C9B202919DF80400C11700EB917189102B
:1090400001919DF80400401CC0B201909DF80410ED
:1090500003A8FFF789FC9DF8081003AA02EB011092
:10906000214616F039FF00209DF808100C2202EB73
:10907000011103AA505400219DF808000C2202EBB4
:109080000010401C03AA11549DF808000C2202EBAA
:109090000010801C03AA11549DF808000C2202EB5A
:1090A0000010C01C03AA11549DF8041003A8FFF778
:1090B00065FC2146284616F00FFF0020A881E881B4
:1090C000FFF7C5FD02204BE77CB504460D46204660
:1090D00016F0ECFE0B2801D912207CBD6A4601A9CE
:1090E0002046FFF7C0FC042800D1F6E700202882C4
:1090F0009DF804102846FFF74BFC0520EDE710B55E
:109100000446062A0BD1208A084403B2A08998425B
:1091100001DB002B01DA0B2010BD23821CE0082AA2
:109120000AD10B46A0891946984201DB002B01DACF
:109130000B20F1E723820FE0072A0BD1A089084416
:1091400003B2A089984201DB002B01DA0B20E3E790
:10915000238201E00920DFE70A20DDE72DE9F04165
:1091600090B004460D461646F08918B90C2010B090
:10917000BDE8F081B089318A401AA84203DAB0898B
:10918000318A401A85B231466846FFF7A2FD308A1F
:10919000C11700EB91618911A0EB8111CFB2C7F12A
:1091A000400000F0FF08A84501DD05F0FF080DEBC9
:1091B00007014246204616F027FE4444A5EB08006E
:1091C00085B2308A404430820FE031466846FFF76E
:1091D00080FD40226946204616F016FE308A403057
:1091E0003082A5F1400085B24034402DEDDA3146A1
:1091F0006846FFF76EFD2A466946204616F004FED3
:10920000308A284430820D20B1E72DE9F041044630
:109210000D469046FFF7FFFBB8F80C100844A84233
:1092200002DA1020BDE8F0814046FFF718FEFFF794
:10923000A9FD0746A8F80E70A8F80C504046FFF7A5
:10924000A7FC01213846FFF772FD19E03946204698
:10925000FFF794FB4034A5F1400085B225B9012108
:109260003846FFF764FD0DE0FFF78CFD06463146FA
:109270003846FFF75CFD01213046FFF758FD3746C1
:10928000402DE3DA00BF4DB1B905080CEAB2214622
:1092900013F09FFF01213846FFF749FD0E20C1E77B
:1092A00030B587B0044605AA06A92046FFF7DBFBC8
:1092B0000546042D02D1284607B030BD6946204638
:1092C000FFF702FF6846FFF72AFE0F20F4E710B50C
:1092D0000446204616F0EAFD0B2801D9122010BDE5
:1092E000002211462046FFF7BEFBF8E7F0B585B037
:1092F00004460D46164669463046FFF7E5FE07462A
:10930000122F02D1F8B205B0F0BD042F0ED13EA04D
:1093100017F046FD69463046FFF718FE0746022F54
:1093200004D046A017F03CFDF8B2ECE76A46A9B2BB
:109330002046FFF76AFF07460E2F02D04CA017F019
:109340002FFDF8B2DFE7F0B585B004460D461646AE
:1093500069463046FFF7B8FE0746052F05D051A0F5
:1093600017F01EFD384605B0F0BD6A46A9B220468A
:10937000FFF7F4FE07460D2F02D054A017F010FDA2
:109380003846F0E7F0B591B004460F460020207053
:10939000012536E0294601A8FFF7E6FA01AE30784C
:1093A00048B117B1781EC7B205E03146204616F025
:1093B00093FD11B0F0BD1036307840B117B1781E72
:1093C000C7B204E03146204616F086FDF1E71036BC
:1093D000307840B117B1781EC7B204E0314620465C
:1093E00016F07AFDE5E71036307840B117B1781EF7
:1093F000C7B204E03146204616F06EFDD9E7681C7E
:10940000C5B2052DC6DDD4E74552524F522D2D3E33
:10941000456570726F6D46696C655F5772697465FA
:10942000446174612D2D3E456570726F6D46696CA7
:10943000655F4F70656E0D0A000000004552524F87
:10944000522D2D3E456570726F6D46696C655F5794
:1094500072697465446174612D2D3E456570726F4B
:109460006D46696C655F4372656174650D0A000045
:109470004552524F522D2D3E456570726F6D4669B3
:109480006C655F5772697465446174612D2D3E454A
:109490006570726F6D46696C655F57726974650DB2
:1094A0000A0000004552524F522D2D3E436865631D
:1094B0006B54616D7065722D2D3E456570726F6DD8
:1094C00046696C655F4F70656E0D0A004552524FDC
:1094D000522D2D3E436865636B54616D7065722D2E
:1094E0002D3E456570726F6D46696C655F72656192
:1094F000640D0A0030B5044600250FE008E09142F3
:1095000001D9022030BD087808B90220FAE7491CC9
:1095100008780A28F3D1491C681C85B29D42EDDB0E
:1095200021600120EEE730B50446002514E00DE08F
:1095300008780A2801D1022030BD087808B9022035
:10954000FAE7914201D90220F6E7491C0878092878
:10955000EED1491C681C85B29D42E8DB21600120E8
:10956000EAE72DE9F84F04460D4616461F463B46EE
:109570002A4621466846FFF7BDFF8246BAF1010F31
:1095800002D05046BDE8F88F304616F08FFC834677
:10959000009816F08BFC009900EB010808EB0B0912
:1095A000002089F80000A94501D90320EAE707E077
:1095B000A9F10109A8F1010898F8000089F8000054
:1095C00000988045F4D85A463146009816F01CFCA5
:1095D0000120D7E72DE9FC4104460D4617460FB19F
:1095E000781E87B23B462A46214601A8FFF782FF34
:1095F0000646012E02D03046BDE8FC81781C83B2BD
:109600002A4621466846FFF775FF0646012E01D01F
:109610003046F1E709E00098007801990870019858
:10962000401C01900098401C009000980078002891
:10963000F1D105E00020019908700198401C0190CB
:10964000DDE900108842F5D10120D5E72DE9F84386
:1096500004460D4616461F46DDF82090B9F1000F6E
:1096600003D0A9F101001FFA80F94B462A46214692
:109670006846FFF73FFF8046B8F1010F02D0404631
:10968000BDE8F88307E0009800783070761C0098F9
:10969000401C00907F1E009800780A2801D0002FFF
:1096A000F1D1002030700120EAE72DE9F84F04469F
:1096B0000D4616461F46DDE90A9ABAF1000F03D09F
:1096C000AAF101001FFA80FA0EB1701EC6B253460D
:1096D0002A4621466846FFF70DFF8046B8F1010F84
:1096E00002D04046BDE8F88F33462A4668460099C6
:1096F000FFF719FF8046B8F1010F01D04046F1E7AE
:1097000008E00098007838707F1C0098401C00909A
:10971000A9F1010900980078092806D0009800787E
:109720000A2802D0B9F1000FEBD1002038700120D7
:10973000D8E70146002005E00A780A2A01D1421C38
:1097400090B2491C0A78002AF6D170472DE9FF4FE4
:109750008DB004460D4616460027B8464FF0010B63
:1097600000200A902822F849684616F04DFB16F0B2
:1097700066F882468146C3E016F061F88246AAEB9D
:109780000900B0F5FA7F09DB0C2306223046109958
:1097900002F09EF8002011B0BDE8F08FBBF1010F80
:1097A00003D14FF0000B0B9502E014F0BFFC0B90BF
:1097B0000B9800B9A4E0D14601F078FE0B98092877
:1097C0005DD008DC092865D2DFE800F064221C3A8D
:1097D000342E284C40000D2854D006DC0A280BD02B
:1097E0000B2845D00C2855D136E0102849D0152833
:1097F00044D0FE284ED143E001200C9047464FF064
:10980000300847E001200C9047464FF0310841E016
:1098100001200C9047464FF032083BE001200C90AD
:1098200047464FF0330835E001200C9047464FF093
:1098300034082FE001200C9047464FF0350829E00E
:1098400001200C9047464FF0360823E001200C9091
:1098500047464FF037081DE001200C9047464FF077
:10986000380817E001200C9047464FF0390811E006
:1098700001200C9047464FF031080BE000BF00BFBD
:1098800000BF00BF0B2307223046109902F020F8DA
:10989000002080E700BF0C9801282ED14FB147452A
:1098A00007D00C2306223046109902F011F80B98CD
:1098B00071E7A8F130005DF820000A99405C207043
:1098C0000A98401CC0B20A90A8F130015DF821004E
:1098D00016F0ECFA401E0A99884201D200200A9044
:1098E0000020607022463046109914F07DFF0C2352
:1098F00006223046109901F0D9FF01F0D0FD00BFDB
:109900003AE72DE9FF4F8DB004460D461646002775
:10991000B8464FF0010B00200A9028228A492831CE
:10992000684616F071FA15F08AFF82468146C3E058
:1099300015F085FF8246AAEB0900B0F5FA7F09DB36
:109940000C2306223046109901F0C2FF002011B00E
:10995000BDE8F08FBBF1010F03D14FF0000B0B9569
:1099600002E014F0E3FB0B900B9800B9A4E0D146A1
:1099700001F09CFD0B9809285DD008DC092865D210
:10998000DFE800F064221C3A342E284C40000D28F9
:1099900054D006DC0A280BD00B2845D00C2855D112
:1099A00036E0102849D0152844D0FE284ED143E097
:1099B00001200C9047464FF0300847E001200C9002
:1099C00047464FF0310841E001200C9047464FF0E8
:1099D00032083BE001200C9047464FF0330835E059
:1099E00001200C9047464FF034082FE001200C90E6
:1099F00047464FF0350829E001200C9047464FF0CC
:109A0000360823E001200C9047464FF037081DE050
:109A100001200C9047464FF0380817E001200C90C9
:109A200047464FF0390811E001200C9047464FF0AF
:109A300031080BE000BF00BF00BF00BF0B230722AF
:109A40003046109901F044FF002080E700BF0C98D9
:109A500001282ED14FB1474507D00C2306223046AE
:109A6000109901F035FF0B9871E7A8F130005DF80F
:109A700020000A99405C20700A98401CC0B20A90ED
:109A8000A8F130015DF8210016F010FA401E0A9985
:109A9000884201D200200A900020607022463046A1
:109AA000109914F0A1FE0C2306223046109901F003
:109AB000FDFE01F0F4FC00BF3AE70D2929D2DFE8F2
:109AC00001F0280D0A19161310221C2807251F0063
:109AD000302202701DE0312202701AE03222027040
:109AE00017E03322027014E03422027011E03522B4
:109AF00002700EE0362202700BE03722027008E09E
:109B00003822027005E03922027002E02E22027033
:109B100000BF00BF70470246102917D112F0010F95
:109B200001D00120704712F0020F01D00220F9E7A6
:109B300012F0040F01D00420F4E712F0080F01D056
:109B40000820EFE71020EDE764180208012915D17D
:109B500012F0020F01D00220E4E712F0040F01D04E
:109B60000420DFE712F0080F01D00820DAE712F036
:109B7000100F01D01020D5E70120D3E7022915D11D
:109B800012F0040F01D00420CCE712F0080F01D02E
:109B90000820C7E712F0100F01D01020C2E712F022
:109BA000010F01D00120BDE70220BBE7042915D138
:109BB00012F0080F01D00820B4E712F0100F01D006
:109BC0001020AFE712F0010F01D00120AAE712F038
:109BD000020F01D00220A5E70420A3E7082915D130
:109BE00012F0100F01D010209CE712F0010F01D0ED
:109BF000012097E712F0020F01D0022092E712F045
:109C0000040F01D004208DE708208BE7022089E7AC
:109C10000146012901D1FFA07047022901D1FFA00F
:109C2000FAE7042901D1FFA0F6E7102901D1FFA02E
:109C3000F2E7082901D1FFA0EEE7F8A0ECE72DE953
:109C4000F04104460D4617469846384616F02EF960
:109C5000C6B2464503DDA6EB0800C6B200E000260A
:109C6000BA1943462946204601F0B4FCBDE8F0810C
:109C70002DE9F04104460D461646002717E007EB94
:109C8000870000EBC700401CC1B20120226814F01D
:109C9000ABFD07EB870000EBC700401CC1B22B46B1
:109CA00030466268FFF7CBFF0C34781CC7B2032F35
:109CB000E5DDBDE8F0812DE9F04186B004460D46B2
:109CC00016461822DDA1684616F09EF800271DE012
:109CD000281B062190FBF1F000F0FF0807EB87003E
:109CE00000EBC700401CC1B243466A46204601F063
:109CF00071FC07EB870000EBC700401CC1B2334684
:109D00006A46284601F066FC781CC7B2032FDFDDE7
:109D100006B0BDE8F0812DE9F04F89B004460D464C
:109D20004FF0040B00200290032D03DA022009B04B
:109D3000BDE8F08F26460027B8460AE0306816F0E6
:109D4000B5F807900798804501D2DDF81C800C36E5
:109D50007F1CA81EB842F1D808EB48004FEA400823
:109D600008F10108B8F1620F01D90120DFE708F11D
:109D70000109C9F17E000621B0FBF1F0C0B20490E8
:109D80004FF0010A14F065FB0123009300238022A9
:109D90001946184601F04EFD002713E0781C00EB31
:109DA000800101EBC000079007983F2801D93F20B0
:109DB0000790012300938022079B1946002001F0A1
:109DC00039FD7F1C042F02D2A81EB842E6D8062D0A
:109DD00001DD062700E02F46B81E00EB800101EBF5
:109DE000C007012300933B4600221146104601F0B4
:109DF00021FD012300933B4642460021404601F0ED
:109E000019FD012300933B467F220021104601F0FB
:109E100011FD264608F10100C0B20190002716E0AE
:109E200007EB870000EBC700401CC1B2012032687D
:109E300014F0DAFC07EB870000EBC700401CC1B24E
:109E40007268049B0198FFF7FAFE0C367F1C032F03
:109E500002D8A81EB842E3D805EB450004EB800009
:109E6000A0F11806306816F021F800EB4000402100
:109E7000A1EB4000C0F34700009007EB870000EB28
:109E8000C700401CC1B23268009814F0ADFC0C361B
:109E9000306816F00BF800EB40004021A1EB4000C9
:109EA00001EB5000C0B2009007EB870000EBC70049
:109EB000401CC1B23268009814F096FC2646344625
:109EC000706815F0F3FF00EB400009EB40000790CD
:109ED0000798802801D9802007904FF4FA730093E7
:109EE0000C23022251460798FEF722FD706815F0F8
:109EF000DDFF71680844059047E3FEF739FC14F074
:109F000015F90690069800B93FE30298012809D197
:109F10000020029072680AF0FF0109F0FF00049B24
:109F2000FFF78DFE01F0C2FA06981A2871D2DFE819
:109F300000F0700F0E131211101614FE0D1715FD00
:109F400070FCFB70707070FAF9F8F7F600BF00BF94
:109F500000BF00BF00BF00BF00BF00BF00BF00BF09
:109F6000706815F0A3FF317A884202D301F097FAA6
:109F70000BE3BBF1010F12D1706815F097FF07904A
:109F8000317A0798814202D801F089FAFDE203A8EC
:109F90000699FFF792FD00208DF80D00ECE0BBF173
:109FA000040F7ED100BF706815F080FF80460790D7
:109FB000307ADDF81C80404502D801F070FAE4E206
:109FC00004990798884202D30498401E0790079886
:109FD00000EB400009EB40000790049880450BD34C
:109FE000706840440499401A421C0B460AF0FF0175
:109FF00009F0FF00FFF723FE0AF0FF030798C2B243
:10A0000003A80699FFF77DFC069000208DF80D004F
:10A0100020E04DE231323320000000006162632015
:10A02000000000004142432000000000C6B4D2F40A
:10A0300000000000B1CABBAD0000000020202020BD
:10A040002020202020202020202020202020202010
:10A050000000000006980028A0D003A9059804F08D
:10A060005EFF0598401C0590706815F01FFF079073
:10A0700007990498814201D304980790079800EB50
:10A08000400009EB400007900798FEF7A7FB7268B5
:10A090000AF0FF0109F0FF00049BFFF7D0FD82E703
:10A0A000FFE7BBF1020F64D100BF706815F0FEFE40
:10A0B00080460790307ADDF81C80404502D801F0D8
:10A0C000EEF962E207990498814202D30498401E97
:10A0D0000790079800EB400009EB400007900498B8
:10A0E00080450BD3706840440499401A421C0B46CB
:10A0F0000AF0FF0109F0FF00FFF7A1FD0AF0FF03DE
:10A100000798C2B203A80699FFF720FB069000202B
:10A110008DF80D00069878B303A9059808E00CE1C6
:10A120004DE015E213E214E227E2C2E127E2F5E195
:10A1300004F0F5FE0598401C0590706815F0B6FE19
:10A14000079004990798884201D3049807900798CC
:10A1500000EB400009EB400007900798FEF73EFB3C
:10A1600072680AF0FF0109F0FF00049BFFF767FD2A
:10A170009BE700208DF80C0003A9059804F0CFFEA2
:10A180000598401C0590706815F090FE079007999F
:10A190000498814201D304980790079800EB40008F
:10A1A00009EB400007900798FEF718FB72680AF069
:10A1B000FF0109F0FF00049BFFF741FDE1E105EB22
:10A1C000450004EB80000C38B04237D1062D01DB8E
:10A1D000042700E0AF1E0120FEF794FA306815F066
:10A1E00065FE00EB4000400007900798C0F1400872
:10A1F0004FEA580808F1400807EB870000EBC7005A
:10A20000411C0C234046079A01F050FB0C3E30687D
:10A2100015F04CFE00EB4000400007900798C0F19D
:10A2200040084FEA580807EB870000EBC700411CC5
:10A230000C234046079A01F039FB7DE005EB450011
:10A2400004EB80001838B0421FD1062D01DB042733
:10A2500000E0AF1E306815F029FE00EB4000400022
:10A2600007900798C0F140084FEA580807EB8700AD
:10A2700000EBC700411C0C234046079A01F016FB77
:10A280000C3E0220FEF73EFA56E0A64254D004F1FE
:10A290002400864225D80C3EAAF10D0A5046FEF74E
:10A2A000BFFA706815F002FE0790706807990844BD
:10A2B000059007990498814201D304980790079864
:10A2C00000EB400009EB400007900798FEF786FA84
:10A2D000062D31DD05EB450004EB80004838089081
:10A2E0002AE00C3E08980C380890706815F0DEFDE6
:10A2F000079070680799084405900799049881426F
:10A3000001D304980790079800EB400009EB400048
:10A3100007900798FEF762FA0120FEF7F3F9012093
:10A32000049A0199FFF7C7FC019A04990898FFF76E
:10A330009FFC0220FEF7E6F923E105EB450004EB64
:10A3400080002438B0424ED904F1180086421ED84D
:10A350000C360AF10D0A5046FEF762FA706815F0E5
:10A36000A5FD07907168079808440590049907981F
:10A37000884201D304980790079800EB400009EB4E
:10A38000400007900798FEF729FA089490E00C36F1
:10A3900008980C300890706815F088FD0790706878
:10A3A00007990844059004990798884201D30498B6
:10A3B0000790079800EB400009EB400007900798D2
:10A3C000FEF70CFA0120FEF79DF90120049A01998D
:10A3D000FFF771FC019A04990898FFF749FC0220E5
:10A3E000FEF790F964E005EB450004EB80002438AB
:10A3F000B0421FD1062D01DB042700E0AF1E012073
:10A40000FEF780F90C36306815F050FD00EB400087
:10A41000400007900798C0F140084FEA580807EB42
:10A42000870000EBC700411C0C234046079A01F04F
:10A430003DFA3DE005EB450004EB80001838B042E2
:10A4400036D1062D01DB042700E0AF1E0120FEF708
:10A4500059F9306815F02AFD00EB400040000790E4
:10A460000798C0F140084FEA580807EB870000EB57
:10A47000C700411C0C234046079A01F017FA0C361E
:10A48000306815F013FD00EB40004000079007987E
:10A49000C0F140084FEA580808F1400807EB870070
:10A4A00000EBC700411C0C234046079A01F0FEF95F
:10A4B00067E0706815F0FAFC0790079868B3079892
:10A4C000401E07900598401E059000207168079A6D
:10A4D000885472680AF0FF0109F0FF00049BFFF73F
:10A4E000AEFB04990798884208D304980790079810
:10A4F00000EB400009EB400007900BE0079800EBF1
:10A50000400009EB400007900C23062251460798B3
:10A5100001F0DEF90798FEF761F932E059460720AD
:10A52000FFF7F9FA83465846FFF772FB02460AF036
:10A53000FF01009009F0FF0014F056F90C231822D7
:10A540005146484601F0B2F90120029019E018E0A6
:10A5500017E005EB450004EB80001838B04202D14B
:10A560000520FFF7E4BB05EB450004EB80000C3849
:10A57000B04201D10620F4E703E00320F1E7042014
:10A58000EFE700BF00F08BFF00BFB6E410B5044654
:10A5900074B14FF48061F84810F06CFA4FF4FA602F
:10A5A00015F045FB4FF48061F34810F065FA04E0C4
:10A5B0004FF44061F04810F05FFA10BD08B501217A
:10A5C000102010F0BEFC4FF44060ADF800000120F8
:10A5D0008DF8020010208DF803006946E64810F05F
:10A5E0009FF94FF40061E44810F044FA4FF48061A1
:10A5F000E14810F041FA0120FFF7C8FF4FF4E130C5
:10A6000012F01AF908BD10B504462146DBA016F079
:10A61000C7FB204612F074F910BD2DE9F0478246C1
:10A620000C4615461E46089F4FF47A7097FBF0F0D3
:10A6300006EB4601C1EBC61100EBC1094A462946AB
:10A64000204612F0B7F98046002004F80800404682
:10A65000BDE8F0872DE9F04FADF20C4D04460D46F4
:10A6600016461F46DDF830841720019012F095F948
:10A67000002000F077FF142096FBF0F629462046D4
:10A6800012F049F90020834602904FF4806A28E0D6
:10A6900044F6206303A800EB0B010093002352460D
:10A6A0000320FFF7BAFF8146B9F1000F03D0CB4476
:10A6B000AAEB090A12E0394603A815F0D8FB10B13D
:10A6C0005320019010E0B8F1000F07D0414603A8D5
:10A6D00015F0CDFB10B15220019005E00298401C0E
:10A6E00002900298B042D3DB00BF03A9A8A016F0E5
:10A6F00057FB01980DF20C4DBDE8F08F2DE9F047A6
:10A700009AB004464FF4FA694FF0000A00BF2046A1
:10A71000FFF779FF0A2099FBF0F9002005468046F3
:10A72000642720E042F2107301A800EB08010093B7
:10A7300000233A460320FFF770FF064616B1B044E7
:10A74000BF1B0FE096A101A815F091FB18B10120E5
:10A750001AB0BDE8F08793A101A815F088FB08B1F5
:10A760000220F5E76D1C4D45DCDB5046411C01F035
:10A77000FF0A052800DACAE70220E9E72DE9F84FC9
:10A7800004460D4616461F4612F007F94FF47A703C
:10A7900046434FF0000A0DB16D1E02E00520BDE8F2
:10A7A000F88FA14628E0814B009300232A464946B2
:10A7B0000320FFF732FF8246D144A5EB0A050020B3
:10A7C00089F80000643E3946204615F050FB08B178
:10A7D0000020E4E773A1204615F049FB08B10120F1
:10A7E000DDE70EB90320DAE713F0A0FC8046B8F1EC
:10A7F0000D0F01D10220D2E7D5E72DE9FC5F044619
:10A800000D4616461F464FF0170B12F0C6F80020F3
:10A8100000F0A8FE142096FBF0F62046FFF7F3FEAA
:10A820000020207082460190A94629E044F620636A
:10A8300004EB0A01009300234A460320FFF7EDFED4
:10A840008046B8F1000F03D0C244A9EB080914E018
:10A850003946204615F00BFB00B114E013F066FCFE
:10A860008346BBF1000F08D0BBF10D0F02D0BBF146
:10A87000100F02D14FF0140B05E00198401C01901D
:10A880000198B042D2DB00BF0198B04201DA4FF02C
:10A89000110B2246514646A016F082FA5846BDE8F2
:10A8A000FC9F2DE9F04FADF20C4D04460D461646C7
:10A8B0001F461720029012F070F8002000F052FEA0
:10A8C000142095FBF0F52046FFF79DFE0020804602
:10A8D00083464FF4806A25E044F6206303A800EB2A
:10A8E0000B010093002352460320FFF796FE81469A
:10A8F000B9F1000F03D0CB44AAEB090A10E03146AE
:10A9000003A815F0B4FA10B1112002900CE03FB189
:10A91000394603A815F0ABFA10B12120029003E0EC
:10A9200008F10108A845D7DB00BF03A918A016F05D
:10A9300037FA02980DF20C4DBDE8F08F2DE9F04F7B
:10A94000ADF20C4D04460D4616461F4617200290E8
:10A9500021461EA016F024FA002000F003FE142069
:10A9600095FBF0F52046FFF74EFE0020804683461B
:10A970004FF4806A55E000000010014053656E649A
:10A980004174436D642D2D3E25730D0A00000000B7
:10A9900053454E445F41545F52653A25730A0000A7
:10A9A0004F4B00004552524F52000000A08601005C
:10A9B00053656E644174436D6420726563656976A6
:10A9C000652D2D3E25642025730D0A0053454E4408
:10A9D0005F41543A25730A0044F6206303A800EB54
:10A9E0000B010093002352460320FFF716FE814619
:10A9F000B9F1000F03D0CB44AAEB090A0FE03146AE
:10AA000003A815F034FA10B1112002900BE039467A
:10AA100003A815F02CFA10B12120029003E008F1F0
:10AA20000108A845D8DB00BF03A9AFF29C0016F0CF
:10AA3000B7F902980DF20C4DBDE8F08F2DE9F04FFB
:10AA4000B7B004460D4616461F46DDF8008111F0EA
:10AA5000A4FF17200390002000F084FD142095FB34
:10AA6000F0F52046FFF7CFFD0020814604904FF01F
:10AA7000C80B42E044F6206305A80093049A8118AD
:10AA800000235A460320FFF7C8FD8246BAF1000FA3
:10AA900005D0049850440490ABEB0A0B2BE03146F0
:10AAA00005A815F0E4F910B11120039027E039460C
:10AAB00005A815F0DCF910B1212003901FE04146F4
:10AAC00005A815F0D4F910B12220039017E005A8CD
:10AAD000419915F0CCF910B1232003900FE013F049
:10AAE00025FB029002980D2802D00298102802D16E
:10AAF0001420039003E009F10109A945BADB00BF66
:10AB000005A9AFF2741016F04BF9039837B0BDE801
:10AB1000F08F30B5C3B00446AFF27813FDA240F613
:10AB2000B831FFA0FFF7BDFE112826D0AFF28C137D
:10AB3000AFF294124EF66021FCA0FFF7B2FE11288E
:10AB400002D0212043B030BDAFF2A813AFF2B01253
:10AB50004EF66021F9A0FFF7A4FE112801D02120B4
:10AB6000F0E7AFF2C013F8A240F6B831F7A0FFF754
:10AB700098FE112801D02120E4E7642104A815F0F3
:10AB80005CF902A800210A4606C02078302802DBC2
:10AB90002078392808DD214604A815F09DF9EEA19A
:10ABA00002A815F099F91DE0002508E020782C286E
:10ABB00003D0207804A94855641C681CC5B2192D1F
:10ABC000F4DB641C00250BE02078302806DB2078BD
:10ABD000392803DC207802A94855641C681CC5B2DA
:10ABE000052DF1DB98211DA815F027F9DBA11DA883
:10ABF00015F02FF904A91DA815F02BF9DCA11DA84B
:10AC000015F027F902A91DA815F023F9D9A11DA84F
:10AC100015F01FF9AFF27423D7A2CDE90023D9A311
:10AC2000DCA243F698211DA8FFF708FF0546212D59
:10AC300000D11125284685E770B504462126D8A005
:10AC400016F0AEF82078302802DB2078392808DDAD
:10AC5000AFF2B023D1A240F6B831D6A0FFF721FE63
:10AC600007E0AFF2C023CDA240F6B831D5A0FFF780
:10AC700018FEAFF2D023C9A24FF4FA61D5A0FFF7B6
:10AC800010FE002512E02046FFF743FF0646112E76
:10AC900001D0142E00D10DE0AFF2F823D1A24EF670
:10ACA0006021D3A0FFF7FDFD681CC5B2032DEADBD0
:10ACB000502600BF304670BD70B592B004460D46B8
:10ACC000CEA016F06DF8D1A102A815F005F929461D
:10ACD0000FA804F050FC0FA902A815F0BAF899A12A
:10ACE00002A815F0B6F8AFF24433CBA24FF4FA61E4
:10ACF00002A8FFF7D6FD0646112E01D0522610E01D
:10AD00002A462146C5A003F062FFAFF268330093E4
:10AD1000C5A34FF4FA6229462046FFF79BFC06467E
:10AD200000BF304612B070BD2DE9FF4F81B0044620
:10AD30000D461E464FF0000AD346A146002000F003
:10AD400011FC002000F014FC06EB86004004060C09
:10AD5000002731E013F0EAF98346BBF1000F03D07E
:10AD6000142005B0BDE8F08FB14B009300232A46B4
:10AD700049460320FFF751FC8046C144A5EB080576
:10AD8000C2442046039915F072F888B1A94B00938C
:10AD900000232A4649460320FFF73FFC8046C14472
:10ADA000A5EB0805C2440DB95420DAE75820D8E7CE
:10ADB0000DB95420D5E77F1CB742CBD35620D0E73E
:10ADC00010B5AFF2204375A240F6B8319AA0FFF754
:10ADD00068FD10BDF0B599B004460D46002799A155
:10ADE000684615F079F800202870207098A340F686
:10ADF000B83264216846FFF700FD96A1684615F059
:10AE000036F80646002E56D0761D05E0761C0DF16C
:10AE10006300864200D94FE030783028F6DB307886
:10AE20003928F3DC307820700020607005E0761C53
:10AE30000DF16300864200D93EE03078302802DB15
:10AE400030783928F3DD05E0761C0DF16300864289
:10AE500000D931E030783028F6DB30783928F3DC5F
:10AE600005E0761C0DF16300864200D924E03078BD
:10AE7000302802DB30783928F3DD05E0761C0DF14F
:10AE80006300864200D917E030783028F6DB30784E
:10AE90003928F3DC30782870761C3078302807DBCE
:10AEA0003078392804DC307868700020A87001E020
:10AEB00000206870002700BF384619B0F0BD10B5FB
:10AEC000ADF5886D00BF0DF58761081DFFF782FFA6
:10AED0000446002C1DD113F0BCFA60A25FA1002033
:10AEE00000F03DFC60A10EA814F0F6FF0DF587619F
:10AEF0000EA814F0AEFF0EAA0EA9012000F02FFC40
:10AF000000208DF80E0002208DF810000020019026
:10AF1000B2E077E1495020434C4F53450000000018
:10AF200041542B5149535441540D000041542B516D
:10AF3000495245474150500D0000000041542B51EB
:10AF4000494143540D0000002E00000041542B5194
:10AF5000494C4F4349500D003830000041542B51AB
:10AF6000494F50454E3D22544350222C22000000B0
:10AF7000222C2200220D0000504450204445414321
:10AF800054000000414C524541445920434F4E4E1D
:10AF900045435400434F4E4E454354204F4B000011
:10AFA0000D0A0D0A5443505F436F6E6E6563740D56
:10AFB0000A00000041542B5149444E5349503D3141
:10AFC0000D00000041542B5149444E5349503D302F
:10AFD0000D00000041542B5149484541443D310D7D
:10AFE000000000004445414354204F4B0000000046
:10AFF00041542B514944454143540D000D0A0D0A5B
:10B000005443505F53656E640D0A000041542B5148
:10B010004953454E443D00003E00000053656E64B8
:10B02000427566663D00000053454E44204F4B007C
:10B03000A0860100C0C62D0041542B5149434C4FFE
:10B0400053450D0041542B535049430D000000005F
:10B050004F4B0D00535049433A000000496E707544
:10B06000742050554B00000072656D61696E20744C
:10B07000696D65733A00000000908DF80F0009A813
:10B08000029009208DF80C0001208DF80D00684613
:10B090000BF097F80446152C00D014E709A814F01B
:10B0A00005FF08280AD013F0D4F9C4A2C3A10220D6
:10B0B00000F055FB022014F0A6FD04E701208DF8F6
:10B0C0000E0002208DF81000C0A00190BFA00090DB
:10B0D00000208DF80F0007A8029005208DF80C00C5
:10B0E00001208DF80D0068460BF06BF80446152C16
:10B0F00000D0E8E607A814F0D9FE04280CD013F01D
:10B10000A8F9AEA2ADA1012000F029FB022014F0A5
:10B110007AFD0DF5886D10BD01208DF80E0002201E
:10B120008DF81000ADA00190ACA0009000208DF82B
:10B130000F0005A8029005208DF80C0001208DF865
:10B140000D0068460BF03DF80446152C00D0BAE619
:10B1500007A814F0ABFE04280AD013F07AF997A2DE
:10B1600096A1012000F0FBFA022014F04CFDD0E77C
:10B1700005A907A814F0A2FE78B113F06AF900221D
:10B180009AA1022000F0EBFA9CA29FA1032000F0FC
:10B19000E6FA022014F037FD95E69EA10EA814F001
:10B1A0009BFE09A90EA814F054FEAFF23C210EA894
:10B1B00014F04FFE07A90EA814F04BFEAFF24C217D
:10B1C0000EA814F046FEAFF2781340F6B8324FF4F2
:10B1D00080610EA8FFF711FB0446112C07D013F075
:10B1E00038F98FA28EA1022000F0B9FA6BE613F0B5
:10B1F00030F98EA28DA1022000F0B1FA022014F0E5
:10B2000002FD86E75FE6F0B58DB004468AA0FFF741
:10B21000FAF9AFF27823022232216846FFF7AEFA3C
:10B220000746694686A015F0BBFD6D46002601E085
:10B230006D1C761C2878302802DB2878392801DD3F
:10B24000322EF5D300260BE028780DF806006D1C91
:10B250002878302802DB2878392800DD02E0761CC7
:10B26000182EF1DB00BF761C00200DF806006946A1
:10B27000204614F031FE38460DB0F0BDF0B5BFB039
:10B28000044672A10DA814F027FEAFF2F0234FF48C
:10B29000FA62C8210DA8FFF7B0FA0546002601E0C2
:10B2A000701CC6B20DA8805D3028F9DB0DA8805D4A
:10B2B0003928F5DC00270CE00DA8805D202800DA95
:10B2C00009E00DA8805D0DF80700781CC7B2701C5E
:10B2D000C6B2312EF0DB00BF00200DF80700694632
:10B2E000204614F0F9FD28463FB0F0BD30B5B3B0AC
:10B2F000002413F0AEF858A25AA1022000F02FFA51
:10B3000000BFC82101A814F098FD59A101A814F0AC
:10B31000A0FD5B4901A814F09CFDAFF2AC3101A87F
:10B3200014F097FD574901A814F093FDAFF2C03116
:10B3300001A814F08EFD544901A814F08AFDAFF263
:10B34000CC3101A814F085FDAFF6A813AFF2B432EA
:10B3500040F6B83101A8FFF7A4FA0546112D02D135
:10B36000284633B030BD12F0E1FE05460D2D01D068
:10B37000102D01D12120F4E72046611CCCB2072812
:10B3800001DD2846EDE7AFF6E413AFF2F0324FF4FB
:10B39000FA61AFF2A430FFF784FA0546112D01D00F
:10B3A000212D09D1032000F091F805460D2D01D083
:10B3B000102D01D12120D4E7A3E700006C656E6752
:10B3C0007468206572726F7200000000496E7075BB
:10B3D00074204E65772050494E0000004167616936
:10B3E0006E204E65772050494E00000054776F2044
:10B3F00074696D657320696E7075740074616B6932
:10B40000652073616D6500006973206E6F74207331
:10B41000616D650041542B4350494E3D22000000B0
:10B4200050554B204572726F7200000050554B20F2
:10B43000526967687400000041542B47534E0D0059
:10B440007263765F6275663D25730A0041542B5125
:10B45000434349440D00000053657474696E6720CE
:10B4600041504E00D5FDD4DAC9E8D6C341504E0054
:10B4700041542B5149435347503D312C2200000089
:10B48000D3130020E9130020FF13002010B511F0A2
:10B49000BDFC3C2014F0CBFB11F0BFFC10BD70478D
:10B4A00010B50446204612F0AFFE10BD10B533486B
:10B4B0000078312801D1FFF7E9FF12F0E2FF782090
:10B4C00012F080FE782012F08CFE10BD70B505469B
:10B4D000FFF7E5FF12F0D5FF284612F073FE28466D
:10B4E00012F07FFE12E012F021FE044604B90DE0D6
:10B4F000152C05D00D2C03D0102C01D0FE2C00D122
:10B5000005E0FFF7D3FFFFF7CAFF00BFEBE700BF7F
:10B51000FFF7CCFFFFF7C3FF204670BD10B5FFF764
:10B52000BEFF12F0AEFF002012F04CFE002012F021
:10B5300058FE05E012F0FAFD044604B900E000E010
:10B54000F8E700BFFFF7B2FFFFF7A9FF204610BDE5
:10B5500010B512F096FF0A2012F034FE0A2012F005
:10B5600040FE10BD10B50446204612F03AFE10BD54
:10B5700010B50446204612F025FE10BDBE0900207D
:10B5800070B504460D4604EB840000EBC400C1B264
:10B590002A46002013F028F904EB840000EBC400D5
:10B5A000C1B2F5A27D2013F01FF970BD70B504463D
:10B5B0000E461546F1480078312805D14DB129468F
:10B5C0002046FFF7DDFF04E01EB131462046FFF7BD
:10B5D000D7FF70BDF0B587B004460D4617461E462E
:10B5E000152E00DD15263246394601A814F00CFC54
:10B5F000002001A9885501AA2946204613F0F4F835
:10B6000007B0F0BD70B504460D46164604EB840045
:10B6100000EBC400C1B23246284613F0E5F870BD15
:10B620002DE9F04104460D4617461E46D3480078E2
:10B63000312806D15EB1324629462046FFF7E2FFA7
:10B6400005E027B13A4629462046FFF7DBFFBDE873
:10B65000F081002205E00B780370401C491C531C4C
:10B660005AB2162A02DA0B78002BF4D104E0202318
:10B670000370401C531C5AB2162AF8DB00230370D7
:10B68000704710B5002308E00C780470401C491C7A
:10B690005C1C63B2934200DB02E00C78002CF3D117
:10B6A00000BF04E020240470401C5C1C63B2934281
:10B6B000F8DB0024047010BD30B587B004460D4699
:10B6C00029466846FFF7C5FF04EB840000EBC40081
:10B6D000C1B26A46002013F087F804EB840000EB47
:10B6E000C400C1B2A4A27D2013F07EF807B030BD23
:10B6F00070B588B004460D461646314601A8FFF7DE
:10B70000A8FF04EB840000EBC400C1B201AA2846E4
:10B7100013F06AF804EB840000EBC400C1B296A2F7
:10B720007D2013F061F808B070BD2DE9F0410446AA
:10B730000F46384614F0BAFB00EB40004004060CFC
:10B74000842E00DD8426C6F1840505EBD570C0F398
:10B7500047013A462046FFF755FFBDE8F08170B536
:10B7600004460E46154685480078312805D14DB16E
:10B7700029462046FFF7D9FF04E01EB13146204696
:10B78000FFF7D3FF70BD38B505460C460123601C9A
:10B7900000EB800202EBC0000093C3B205EB850012
:10B7A00000EBC500C1B28422002013F04EF938BD71
:10B7B000F8B504460D4616461F4603230D2000FB30
:10B7C00005700093C3B2A019401EC2B205EB8500FC
:10B7D00000EBC500C1B2E0B213F037F9F8BD704715
:10B7E0002DE9F84304460D4616461F46DDF8208035
:10B7F00008F0FF0306EB860000EBC600C2B2009320
:10B80000FBB2E9B2204612F07DFEBDE8F8832DE9D7
:10B81000F84304460D4616461F46DDF8208008F022
:10B82000FF030093FBB2F2B2E9B2204612F06AFEC7
:10B83000BDE8F8832DE9F04104460D4616461F4643
:10B84000DDF81880FBB2F2B2E9B2E0B213F00DF805
:10B85000BDE8F0812DE9F84304460D4616461F4623
:10B86000DDF82080E819401EC3B2A019401EC2B204
:10B87000E9B2E0B2CDF8008013F0E7F8BDE8F88354
:10B880002DE9F84304460D4616461F46DDF8208094
:10B89000E819401EC3B2A019401EC2B2E9B2E0B21C
:10B8A000CDF8008013F0D1F8BDE8F883F8B5044670
:10B8B0000D4616461F460323E819401E0093C3B2E7
:10B8C000A019401EC2B2E9B2E0B213F0BEF8F8BD52
:10B8D000F8B504460D4616461F460123E819401EDA
:10B8E0000093C3B2A019401EC2B2E9B2E0B213F095
:10B8F000ACF8F8BD70B5044658206043642190FB55
:10B90000F1F5E8B213F09CF970BD38B504460D4668
:10B91000032305EB850000EBC5000B300093C3B299
:10B9200005EB850000EBC500C1B28022204613F074
:10B930008CF838BD70B504460D46164604EB8400FD
:10B9400000EBC4010C2332462846FFF7AFFF70BD61
:10B9500038B50446032304EB840000EBC4000B302D
:10B960000093C3B204EB840000EBC400C1B2832295
:10B97000002013F06AF838BD200000004A000020C3
:10B9800010B5F8480068401CF6490860F648007891
:10B9900001281BD1084600683C21B0FBF1F201FBF5
:10B9A0001200D8B9EF48001D0078401CED49091D70
:10B9B0000870087800EBD0714910B0EB410102D15A
:10B9C00013F062F90AE013F066F907E0E648007840
:10B9D00020B913F060F90220E349087010BD3EB5AC
:10B9E0000446E24968462CC92CC028E0684601F0AC
:10B9F00067F89DF80A0015281AD10098816820463A
:10BA000088478DF80B009DF80B00FE2803D09DF8A9
:10BA10000B000D2806D1D6480068D64908609DF86D
:10BA20000B003EBD12F015FD01208DF8090006E067
:10BA3000CF480068CF4908609DF80A00F1E7D5E7D4
:10BA400010B5A6B004469022C849303102A814F0BF
:10BA5000DBF9202C01DD002405E0052094FBF0F447
:10BA6000052C00DD05240C2304EB440102AA02EBA3
:10BA7000C100002211460093FFF7C9FE26B010BD99
:10BA800030B599B0BCA1684614F026FABCA3642274
:10BA900061216846FEF7B1FE0546112D0FD1B9A10F
:10BAA000684614F0E4F904464CB1A01D14F01DFAE8
:10BAB000AC494831086008460068FFF7C1FF19B07B
:10BAC00030BD10B50446B1A1204614F0D0F908B13C
:10BAD000B24810BDB2A1204614F0C9F910B1AF4868
:10BAE0000F30F6E7B0A1204614F0C1F910B1AB4811
:10BAF0001E30EEE7B0A1204614F0B9F910B1A74806
:10BB00002D30E6E7A5480F38E3E770B59AB0ABA152
:10BB100001A814F0E1F99AA36422612101A8FEF7BB
:10BB20006CFE0446112C2BD1A7A101A814F09FF99B
:10BB3000054695B1A0A1284614F099F905463DB1F6
:10BB40006D1C22231022294601A803F07FFD08E086
:10BB50009FA101A814F0C0F903E09DA101A814F071
:10BB6000BBF90C23542200211420FFF7B1FE01A8D9
:10BB7000FFF7A7FF064601AA31460020FFF7EFFDB9
:10BB80001AB070BD08B577484C300078401C754934
:10BB90004C31087008460078042801DD0020087048
:10BBA0000C2370494C310093097801EB41018C4A18
:10BBB00002EBC10000227421FFF729FE08BD38B551
:10BBC000044641F66410844201DA00241DE041F687
:10BBD0006410844205DB41F65830844201DA0124C6
:10BBE00013E041F65830844205DB41F64C50844264
:10BBF00001DA022409E041F64C50844204DBB4F53A
:10BC0000FA5F01DA032400E004240C2304EB44016E
:10BC1000734A02EBC100002274210093FFF7F7FD85
:10BC200038BD10B54F4844300078401C4D49443170
:10BC30000870084600780B2815DD0020087012F007
:10BC400008FC68A26BA10220FFF789FDFFF727FC23
:10BC500004E012F06BFA044604B100E0F9E700BF1B
:10BC600001206949087010BD70B59AB0002567A120
:10BC700001A814F031F942A36422612101A8FEF762
:10BC8000BCFD0646112E1BD101A963A015F088F852
:10BC900063A101A814F0EBF80446A4B162A1204608
:10BCA00014F0E5F8044674B1641C204614F01DF944
:10BCB0002C4950310860084600688000086002E0A6
:10BCC0005AA015F06DF811F080F80546012D47D106
:10BCD00024485030006842F25801884218DA21485E
:10BCE00050300068B0F5966F07DD11F060F801285C
:10BCF00002D11C4969310870CAE000201949693134
:10BD000008700C231A4600217420FFF7E1FDBFE004
:10BD100014485030006842F29401884216DB114802
:10BD200054300078012811D100200E495431087098
:10BD300012F08FFB41A246A10220FFF710FD4FF445
:10BD4000FA60FFF7C3FB01202F4908700548503007
:10BD50000068FFF734FF002002496931087097E05E
:10BD60007EE000005400002050000020F422020871
:10BD7000B4000020B800002041542B4353510D0063
:10BD80004F4B00002B4353513A2000004348494E8B
:10BD900041204D4F42494C4500000000A4210208BB
:10BDA000554E49434F4D00004348494E41205445AC
:10BDB0004C45434F4D0000002200000041542B43EE
:10BDC0004F50533F0D000000434F50530000000000
:10BDD000536561726368696E67206E657400000068
:10BDE000E0210208506C65617365204368617267E9
:10BDF00065000000B5E7C1BFB2BBD7E3A3ACC7EB9A
:10BE0000B3E4B5E7000000004D00002041542B5181
:10BE10004144433F0D00000025730D0A000000005F
:10BE20002B514144433A00002C00000041542B5157
:10BE3000414443206E6F206F6B0D0A00456C6563B3
:10BE4000747269636974792046756C6C0000000037
:10BE5000B5E7B3D8B5E7C1BFD2D1B3E4C2FA0000A9
:10BE6000FD48006841F62C21884204DDFA4800684C
:10BE7000FFF7A5FE05E0FFF7D4FEF7480068FFF7DF
:10BE80009EFE0120F449091D08700020153108703C
:10BE90001AB070BD10B596B004462422EF4908A828
:10BEA00013F0B2FF142111A813F0C7FF04AB002256
:10BEB0000092CDE90123134605AA06A907A813F0AD
:10BEC00036FE9DF8143000939DF81830E4A111A8B7
:10BED000079A14F075FF11AA2221002012F084FCA9
:10BEE000052300939DF8101001EB810108AA881822
:10BEF000042323223D21FFF78AFC16B010BD38B57C
:10BF00000446DB48B4FBF0F100FB11454FF46160DF
:10BF1000B5FBF0F52A46D7A1684614F051FF6A46F2
:10BF20001221082012F060FC4FF46160B4FBF0F1C4
:10BF300000FB11453C20B5FBF0F52A46CDA1684633
:10BF400014F03EFF6A4612211A2012F04DFC3C20EC
:10BF5000B4FBF0F100FB11452A46C8A1684614F075
:10BF60002FFF6A4612212C2012F03EFC38BD70B51E
:10BF70009AB00646C348007800283ED00020C14948
:10BF8000087012F066FA13F05DFCB34908310860DE
:10BF900008460068FFF7B3FFAF4808300068FFF7B6
:10BFA00079FFFFF76DFDFFF75FFEAB4819300078B2
:10BFB00008B1FFF7E7FDFFF7A8FD12230093342334
:10BFC00014224A21A548A838FFF721FCAEA101A8F8
:10BFD00013F082FFAE4901A813F03BFF01AA26210E
:10BFE0004D2012F001FCABA2AAA10420FFF7B7FB81
:10BFF000002099490C3108703AE013F023FC044604
:10C00000954808300168A14232D004600068FFF70B
:10C0100076FF914808300068FFF73CFFFFF724FEE9
:10C020008D481930007808B1FFF7ACFD8A48083018
:10C0300000680521B0FBF1F201FB120414B9FFF70F
:10C0400064FD07E0012C05D0022C02D1FFF718FD9A
:10C0500000E000BF80480C300078401C7E490C3165
:10C060000870084600781E2802DD01208E490870FD
:10C0700012F05CF805460DB1FE2D02D100201AB079
:10C0800070BD002074490C31087012F0FAF90A20D2
:10C0900012F098F80A2012F0A4F8284600F004F8EC
:10C0A000FFF7FDF90020EAE710B50446162C44D24C
:10C0B000DFE804F04319181D1C1B1A201E210B2E4B
:10C0C0001F40434343434342413278487849086024
:10C0D000AFF265107749086001206A490870764917
:10C0E00008702BE02AE029E028E027E026E025E0A0
:10C0F00024E023E022E071486D490860AFF291101E
:10C100006C49086001205F4908706B49087015E0B0
:10C11000002005F0D1FD11E0AFF23D7064490860E8
:10C12000AFF2B510634908600120564908706249B2
:10C13000087003E002E001E000E000BF00BF10BDB6
:10C1400038B513F0DDFA4FF4E13010F073FA12F065
:10C150008BFD12F078F912F094F912F07AF940237D
:10C160000093802300221146554812F0CBF911F0BC
:10C170004EFC10F03BFE13F016FB11F093FA11F099
:10C18000A1F911F0BEF9012801D1FCF7D3FE12F09C
:10C1900099FD13F099FD10F0EBFDFEF70FFA4FF447
:10C1A0007A7013F044FD13F058F9052808D012F006
:10C1B00050F944A10220FFF7B8FA0320FFF786F9EF
:10C1C0004548FDF784F80446122C07D112F041F9D6
:10C1D00042A247A10220FFF7C2FA2FE0032C15D19B
:10C1E00006F09BFE0446012C28D012F032F944A23E
:10C1F00049A10220FFF7B3FAFCF79CFE06F04AFEC5
:10C200000220FFF763F900F058F917E0042C15D16C
:10C2100046A014F0C5FDFCF78DFE06F03BFE04467B
:10C22000012C0BD012F015F948A24DA10220FFF706
:10C2300096FA0220FFF74AF900F03FF94D4813F053
:10C2400054FEC5B22846FFF755FB13F09FFD02F0E0
:10C250003BFB012038BD0000A400002000230208A1
:10C26000253034642D253032642D253032640000B1
:10C2700080510100253032643A00000025303264DC
:10C28000000000004D0000205665723A00000000DA
:10C29000B8180208576972656C657373205465722B
:10C2A0006D696E616C0000004F000020259501084B
:10C2B000B8000020B40000204C0000201D2D010813
:10C2C000BD1C02085072696E74657220696E6974D3
:10C2D000206572726F7200004480020846696C65C6
:10C2E0004E616D6520746F6F206C6F6E670000008B
:10C2F000C5E4D6C3CEC4BCFEC3FBCCABB3A4000024
:10C30000526573746F7265205661726961626C6503
:10C31000204661696C000000BBD6B8B4C8ABBED67D
:10C32000B1E4C1BFCAA7B0DC000000004861766577
:10C330004E6F745468697346696C652C496E6974F4
:10C3400020456570726F6D0D0A00000052657374B0
:10C350006F72652046696C65204661696C0000005B
:10C36000BBD6B8B4C5E4D6C3CEC4BCFECAA7B0DC45
:10C3700000000000B50900207CB5684600210A468F
:10C3800006C0002612F065F854A258A10220FFF75B
:10C39000E6F959A25CA10320FFF7E1F96AE011F088
:10C3A000C5FE054605B965E0FFF770F80D2D48D2CA
:10C3B000DFE805F0470C07201B16112F2539343E06
:10C3C0002A00312453A014F0EBFC3BE0322454A0AB
:10C3D00014F0E6FC36E0332454A014F0E1FC31E024
:10C3E000342455A014F0DCFC2CE0352455A014F0C6
:10C3F000D7FC27E0362456A014F0D2FC22E03724E4
:10C4000056A014F0CDFC1DE0382457A014F0C8FC51
:10C4100018E0392457A014F0C3FC13E0302458A0CE
:10C4200014F0BEFC0EE0232458A014F0B9FC09E07F
:10C43000684600210A4606C0002658A014F0B0FC49
:10C4400018E000BF00BF052E0ED20DF80640701C8C
:10C45000C6B256A1684613F031FD50B913F0B7FCCF
:10C4600054A014F09DFC7CBD684600210A4606C01D
:10C47000002600BF93E710B5FFF762FE12F001F847
:10C48000142011F09FFEAFF219504D4908600CF0D6
:10C49000E5FF11E000204A490968884749480078CB
:10C4A000012809D111F0B4FE00204649087001208E
:10C4B0004549087011F0E5FFECE74448006800F4D6
:10C4C000E060434940EA010000F104004FF0E02140
:10C4D000C1F80C0DBFF3408F00BFFEE7496C6C65DF
:10C4E00067616C206F70656E00000000B7C7B7A869
:10C4F000B2F0BBFA00000000436869702064657305
:10C5000074726F6965640000D0BEC6ACD2D1D7D456
:10C51000BBD900006B65792069732031200D0A00BA
:10C520006B65792069732032200D0A006B657920D4
:10C5300069732033200D0A006B65792069732034FC
:10C54000200D0A006B65792069732035200D0A00E3
:10C550006B65792069732036200D0A006B657920A0
:10C5600069732037200D0A006B65792069732038C4
:10C57000200D0A006B65792069732039200D0A00AF
:10C580006B65792069732030200D0A006B65792076
:10C590006973204A494E47200D0A00006B657920D7
:10C5A00069732058494E47200D0A00002331323369
:10C5B00023000000756E6C6F636B2121210D0A0052
:10C5C000B80000204F0000204D0000200CED00E0DE
:10C5D0000000FA05014601200D291AD2DFE801F01A
:10C5E000190907110F0D0B1713191919150001203F
:10C5F0000FE002200DE003200BE0042009E00520FD
:10C6000007E0062005E0072003E0082001E00920FC
:10C6100000BF00BF70472DE9FC5F0446207AE17936
:10C62000401A2179884267DA25796679E77994F8A2
:10C630000880A8EB070000EB800202EBC00307EBC9
:10C64000870000EBC7010B227820FFF741F9022396
:10C6500007EB870000EBC70105227B200093FFF763
:10C660000FF9022308EB880000EBC800011F052228
:10C670007B200093FFF704F9022308EB880000EB0E
:10C68000C8000093031F07EB870000EBC7017D2262
:10C690001046FFF7CFF8A8EB070000EB800101EB95
:10C6A000C000083800F0FF0A9AFBF5F000F0FF091F
:10C6B000B9F1010F01DA4FF001099AFBF5F070436F
:10C6C000C01C0D2101FB070000F0FF0B9AFBF5F0E9
:10C6D00005FB10A1701C414391FBF5F0C0B2019025
:10C6E0000198584400F0FF0B022300934B460522AB
:10C6F00059467B20FFF7C4F8BDE8FC9F30B5039C8A
:10C7000001600271002545718371C37104720125B6
:10C71000457200258572C57230BD2DE9F04188B0A3
:10C7200004464FF00008FEF7BAFE217AE079FFF7E1
:10C730002AF8C4E1607A10F0020F15D0607A10F088
:10C74000080F04D0A179481EFFF702F903E0A17990
:10C75000481CFFF7FDF8A079FFF7FAF82046FFF72D
:10C760005AFF002060724EE0607A10F0010F4AD04C
:10C77000A079E179401AC7B2E07945B20EE02068AD
:10C78000A0EBC700016801A8FEF763FF01A9E8B2AA
:10C79000FEF7F6FE781EC7B2681C45B2A079A84223
:10C7A000EDDA012719E060793844217988420CDA02
:10C7B000206850F8371001A8FEF74BFF01A9E8B236
:10C7C000FEF7DEFE781CC7B205E0207A411E28463F
:10C7D000FEF7D9FF05E0681C45B2207A401EA8424A
:10C7E000E1DA00BFB8F1010F05D1607A10F0100F47
:10C7F00001D14FF00008A079FFF7AAF82046FFF713
:10C800000AFF0020607211F091FC064606B956E15D
:10C81000FEF74CFE0C2E23D008DC092E46D2DFE8B2
:10C8200006F04519181D1C1B1A201E00172E7ED05D
:10C8300008DC0D2E7CD0102E7BD0152E7AD0162E33
:10C8400034D198E0182E32D0192E60D0FE2EF7D1B8
:10C850002CE100BF00BF00BF00BF00BF00BF00BF92
:10C8600000BF3046FFF7B6FE45B22079A8421DDB77
:10C8700061792068A0EBC1002060691E206800EB90
:10C88000C1002060681E6071207AE179401A6179E8
:10C8900091FBF0F200FB1210E1790844A071152021
:10C8A000A072FEF7FCFD08B0BDE8F08103E16079FD
:10C8B000A8B12068083820606079401E6071A079B6
:10C8C000E179884205DDA079401EA07106206072E2
:10C8D0001CE0207A401EA0710120607216E02179D0
:10C8E000491E206800EBC10020602079401E607165
:10C8F000207AE179401A2179491E91FBF0F200FB80
:10C900001210E1790844A07101206072D3E06079CF
:10C910002179491E884221DA206808302060607938
:10C92000401C6071A079217A491E884203E072E0C0
:10C93000B7E0B1E0ABE00CDA2079E1790844401EC1
:10C94000A179884205DDA079401CA0710A2060729F
:10C9500010E0E079A071012060720BE02179491E9E
:10C960002068A0EBC100206000206071E079A07118
:10C97000012060729FE0207AE179401A45B2607927
:10C980002844E1790844A179401A2179884224DABF
:10C99000A079E179884207D1206800EBC5002060CA
:10C9A00060792844607113E0A079E179401A216828
:10C9B000A1EBC0002060206800EBC5002060A079DA
:10C9C000E179401A6179081A6071607928446071D0
:10C9D000E079A071112060721CE0B8F1000F19D14C
:10C9E000A079E179884213D12079401E6179401AFB
:10C9F000216801EBC00020602079401E6179401A57
:10CA0000E1790844A0712079401E607111206072A4
:10CA10004FF001084FE0207AE179401A45B2607981
:10CA2000A179401AE1790844A84224DBA079E17990
:10CA3000884207D12068A0EBC50020606079401BC8
:10CA4000607113E0A079E179401A2168A1EBC00080
:10CA500020602068A0EBC5002060A079E179401A31
:10CA60006179081A60716079401B6071E079A0718A
:10CA7000212060720AE061792068A0EBC10020608B
:10CA800000206071E079A0712120607213E0152010
:10CA9000A072FEF704FD06E71020A072FEF7FFFC6F
:10CAA00001E70D20A072FEF7FAFCFCE6FE20A07262
:10CAB000FEF7F5FCF7E600BFFEF7F1FC00BF39E634
:10CAC00070B58EB00446FEF7EAFC217AE079FEF7F5
:10CAD0005AFE7FE1607A10F0020F15D0607A10F0F4
:10CAE000080F04D0A179481EFEF732FF03E0A179B8
:10CAF000481CFEF72DFFA079FEF72AFF2046FFF71E
:10CB00008AFD0020607237E0607A10F0010F33D0A8
:10CB100000206072E57921E0A27902EB42022068F0
:10CB2000A0EB820005EB450250F8221007A8FEF7A3
:10CB300090FDA27902EB42022068A0EB820005EB97
:10CB4000450200EB820041686846FEF782FD6A46B6
:10CB500007A92846FEF72AFD681CC5B2207AA8421C
:10CB600004DD2079E1790844A842D5DCA079FEF7FC
:10CB7000EFFE2046FFF74FFD11F0D8FA064606B942
:10CB800028E1FEF793FC0C2E23D008DC092E4DD2B1
:10CB9000DFE806F04C19181D1C1B1A201E00172E6A
:10CBA00075D008DC0D2E73D0102E72D0152E71D0DA
:10CBB000162E3BD19EE0182E39D0192E6CD0FE2EA9
:10CBC000F7D1FEE000BF00BF00BF00BF00BF00BF45
:10CBD00000BF00BF3046FFF7FDFC05462079A842A4
:10CBE00024DB617901EB41012068A0EB810020602A
:10CBF000691E01EB4101206800EB81002060681E86
:10CC00006071207AE179401A401E691E884204DD75
:10CC1000E0792844401EA07102E0207A401EA071F5
:10CC20001520A072FEF73BFC0EB070BDCEE060791F
:10CC300078B120680C3820606079401E6071A0795E
:10CC4000E17988421EDDA079401EA0710620607245
:10CC500018E02179491E01EB4101206800EB8100B9
:10CC600020602079401E60712079E1790844217AA2
:10CC7000884202DD207A401E03E02079E1790844F1
:10CC8000401EA071607A40F0010060729EE066E094
:10CC900092E08CE086E0FFE760792179491E8842C6
:10CCA00017DA20680C3020606079401C6071A07930
:10CCB000217A491E884218DA2079E1790844401E19
:10CCC000A179884211DDA079401CA0710A20607210
:10CCD0000BE02179491E01EB41012068A0EB8100A6
:10CCE000206000206071E079A071607A40F001005E
:10CCF00060726BE0207AE179401AC5B2607928440D
:10CD00002179491E88420EDA05EB4501206800EBC7
:10CD100081002060607928446071207A401EA071F3
:10CD2000092060721AE02079401E6179401A00EBF8
:10CD30004000216801EB800020602079401E607176
:10CD40002079A84205DA2079401EE1790844A071D3
:10CD500002E0207A401EA0710920607236E0207A3D
:10CD6000E179401AC5B26079A8420DDD05EB4501B5
:10CD70002068A0EB810020606079401B6071E07941
:10CD8000A071052060720CE0617901EB410120681F
:10CD9000A0EB8100206000206071E079A071092083
:10CDA000607213E01520A072FEF779FB3CE71020BB
:10CDB000A072FEF774FB37E70D20A072FEF76FFB41
:10CDC00032E7FE20A072FEF76AFB2DE700BFFEF7F8
:10CDD00066FB00BF7EE670B588B00446FEF75FFBD9
:10CDE000217AE079FEF7CFFC83E1607A10F0020F40
:10CDF00018D0607A10F0080F05D0A079411E1020DD
:10CE0000FEF783FD04E0A079411C1020FEF77DFDB4
:10CE1000A1791020FEF779FD2046FFF7FCFB0020EA
:10CE200060723AE0607A10F0010F36D00020607234
:10CE3000E57923E00C230093A27902EB42022168FA
:10CE4000A1EB820105EB450251F82200EAB2002174
:10CE5000FEF7C6FCA27902EB42022068A0EB82003A
:10CE600005EB450200EB8200416801A8FEF7F1FBEB
:10CE700001AA1021E8B2FEF7C5FB6D1C207AA8427A
:10CE800004DD2079E1790844A842D3DCA17910209F
:10CE9000FEF73BFD2046FFF7BEFB11F047F90646C3
:10CEA00006B926E1FEF702FB0C2E23D008DC092E82
:10CEB0004DD2DFE806F04C19181D1C1B1A201E006D
:10CEC000172E75D008DC0D2E73D0102E72D0152EB3
:10CED00071D0162E3BD19EE0182E39D0192E6CD071
:10CEE000FE2EF7D1FCE000BF00BF00BF00BF00BFB7
:10CEF00000BF00BF00BF3046FFF76CFB054620793E
:10CF0000A84224DB617901EB41012068A0EB81009C
:10CF10002060691E01EB4101206800EB8100206068
:10CF2000681E6071207AE179401A401E691E8842AD
:10CF300004DDE0792844401EA07102E0207A401E02
:10CF4000A0711520A072FEF7AAFA08B070BDCCE05F
:10CF5000607978B120680C3820606079401E60717B
:10CF6000A079E17988421EDDA079401EA0710620DB
:10CF7000607218E02179491E01EB4101206800EB45
:10CF8000810020602079401E60712079E179084499
:10CF9000217A884202DD207A401E03E02079E1797F
:10CFA0000844401EA071607A40F0010060729CE06D
:10CFB00065E090E08AE084E0FFE760792179491E2E
:10CFC000884217DA20680C3020606079401C60715C
:10CFD000A079217A491E884218DA2079E17908443B
:10CFE000401EA179884211DDA079401CA0710A2061
:10CFF00060720BE02179491E01EB41012068A0EB32
:10D000008100206000206071E079A071607A40F0BA
:10D010000100607269E0207AE179451A607928445C
:10D020002179491E88420EDA05EB4501206800EBA4
:10D0300081002060607928446071207A401EA071D0
:10D04000092060721AE02079401E6179401A00EBD5
:10D050004000216801EB800020602079401E607153
:10D060002079A84205DA2079401EE1790844A071B0
:10D0700002E0207A401EA0710920607235E0207A1B
:10D08000E179451A6079A8420DDD05EB450120687C
:10D09000A0EB810020606079401B6071E079A07195
:10D0A000052060720CE0617901EB41012068A0EB82
:10D0B0008100206000206071E079A0710920607219
:10D0C00013E01520A072FEF7EAF93EE71020A072E7
:10D0D000FEF7E5F939E70D20A072FEF7E0F934E735
:10D0E000FE20A072FEF7DBF92FE700BFFEF7D7F9AD
:10D0F00000BF7AE670B588B00446FEF7D0F9217A11
:10D10000E079FEF740FB6EE1607A10F0020F18D074
:10D11000607A10F0080F05D0A079411E1020FEF7AC
:10D12000F4FB04E0A079411C1020FEF7EEFBA1798E
:10D130001020FEF7EAFB2046FFF76DFA0020607230
:10D1400034E0607A10F0010F30D000206072E57991
:10D150001DE00C230093A2792168A1EB021101EBE1
:10D1600005112A4608680021FEF73AFBA2792068DB
:10D17000A0EB021000EB0510416801A8FEF769FA68
:10D1800001AA10212846FEF73DFA681CC5B2207A94
:10D19000A84204DD2079E1790844A842D9DCA179CC
:10D1A0001020FEF7B2FB2046FFF735FA10F0BEFF65
:10D1B000064606B917E1FEF779F90C2E23D008DCF4
:10D1C000092E49D2DFE806F04819181D1C1B1A2049
:10D1D0001E00172E6FD008DC0D2E6DD0102E6CD0D7
:10D1E000152E6BD0162E37D195E0182E35D0192E6E
:10D1F00065D0FE2EF7D1EDE000BF00BF00BF00BF3D
:10D2000000BF00BF00BF00BF3046FFF7E3F905468F
:10D210002079A84220DB61792068A0EB0110206012
:10D22000691E206800EB01102060681E6071207A82
:10D23000E179401A401E691E884204DDE0792844E5
:10D24000401EA07102E0207A401EA0711520A0723D
:10D25000FEF725F908B070BDC1E0607978B12068AB
:10D26000103820606079401E6071A079E1798842B1
:10D270001CDDA079401EA0710620607216E02179A5
:10D28000491E206800EB011020602079401E60716B
:10D290002079E1790844217A884202DD207A401E13
:10D2A00003E02079E1790844401EA071607A40F0E3
:10D2B0000100607293E05FE087E081E07BE06079ED
:10D2C0002179491E884217DA206810302060607981
:10D2D000401C6071A079217A491E884216DA2079B3
:10D2E000E1790844401EA17988420FDDA079401CF5
:10D2F000A0710A20607209E02179491E2068A0EB24
:10D300000110206000206071E079A071607A40F027
:10D310000100607263E0207AE179401AC5B2607959
:10D3200028442179491E88420CDA206800EB051058
:10D330002060607928446071207A401EA071092025
:10D34000607218E02079401E6179401A216801EB73
:10D35000001020602079401E60712079A84205DA13
:10D360002079401EE1790844A07102E0207A401E35
:10D37000A0710920607232E0207AE179401AC5B2CA
:10D380006079A8420BDD2068A0EB05102060607971
:10D39000401B6071E079A071052060720AE061793C
:10D3A0002068A0EB0110206000206071E079A0717E
:10D3B0000920607213E01520A072FEF770F849E7AB
:10D3C0001020A072FEF76BF844E70D20A072FEF764
:10D3D00066F83FE7FE20A072FEF761F83AE700BF6B
:10D3E000FEF75DF800BF8FE6002205E00B780370C2
:10D3F000401C491C531CDAB2142A02DA0B78202B89
:10D40000F4DA04E020230370401C531CDAB2172A1C
:10D41000F8DB00230370704770B588B00446FEF750
:10D420003EF8217AE079FEF7AEF98AE1607A10F0F1
:10D43000020F2CD0607A10F0080F0CD0E06828B1F1
:10D44000A079411E1020FEF760FA10E0A179481E75
:10D45000FEF77EFA0BE0E06828B1A079411C1020AD
:10D46000FEF753FA03E0A179481CFEF771FAE06871
:10D4700020B1A1791020FEF748FA02E0A079FEF76A
:10D4800067FA2046FFF7C7F8002060723CE0607A38
:10D4900010F0010F38D000206072E5791FE0E068DD
:10D4A00030B10C2300932A460021E068FEF798F97A
:10D4B000A2792068A0EB820050F8251001A8FFF7A0
:10D4C00093FFE06828B101AA10212846FEF79AF8D8
:10D4D00003E001A92846FEF753F8681CC5B2207A7C
:10D4E000A84204DD2079E1790844A842D7DCE0684D
:10D4F00020B1A1791020FEF708FA02E0A079FEF72A
:10D5000027FA2046FFF787F810F010FE064606B906
:10D5100017E1FDF7CBFF0C2E23D008DC092E49D2F2
:10D52000DFE806F04819181D1C1B1A201E00172ED4
:10D530006FD008DC0D2E6DD0102E6CD0152E6BD058
:10D54000162E37D195E0182E35D0192E65D0FE2E27
:10D55000F7D1EDE000BF00BF00BF00BF00BF00BFBC
:10D5600000BF00BF3046FFF735F805462079A842D6
:10D5700020DB61792068A0EB81002060691E2068B3
:10D5800000EB81002060681E6071207AE179401A0A
:10D59000401E691E884204DDE0792844401EA071C7
:10D5A00002E0207A401EA0711520A072FDF777FFDF
:10D5B00008B070BDC1E0607978B12068001F2060BC
:10D5C0006079401E6071A079E17988421CDDA07904
:10D5D000401EA0710620607216E02179491E206865
:10D5E00000EB810020602079401E60712079E17994
:10D5F0000844217A884202DD207A401E03E0207927
:10D60000E1790844401EA071607A40F00100607228
:10D6100093E05FE087E081E07BE060792179491E5B
:10D62000884217DA2068001D20606079401C607114
:10D63000A079217A491E884216DA2079E1790844D6
:10D64000401EA17988420FDDA079401CA0710A20FC
:10D65000607209E02179491E2068A0EB81002060FA
:10D6600000206071E079A071607A40F00100607282
:10D6700063E0207AE179401AC5B2607928442179C3
:10D68000491E88420CDA206800EB85002060607932
:10D6900028446071207A401EA0710920607218E051
:10D6A0002079401E6179401A216801EB80002060DA
:10D6B0002079401E60712079A84205DA2079401E49
:10D6C000E1790844A07102E0207A401EA07109208F
:10D6D000607232E0207AE179401AC5B26079A842DE
:10D6E0000BDD2068A0EB850020606079401B607135
:10D6F000E079A071052060720AE061792068A0EBF2
:10D700008100206000206071E079A07109206072C2
:10D7100013E01520A072FDF7C2FE49E71020A072A9
:10D72000FDF7BDFE44E70D20A072FDF7B8FE3FE710
:10D73000FE20A072FDF7B3FE3AE700BFFDF7AFFE93
:10D7400000BF73E610B50446002003F0C1FA10BD17
:10D7500010B5ADF6584D04461422FF490DF644406D
:10D7600012F052FB21780DF64C4001F004FFFBA1B2
:10D770000DF6444012F06DFB0DF64440FCF743FFFC
:10D780004FF400610DF2444012F057FBF4A3032262
:10D790004FF400610DF24440FCF7F0FF092848D136
:10D7A000F0A3009301AB0DF204420DF224410DF2FF
:10D7B000444009F059F809283BD1ECA2EEA1002021
:10D7C000FDF7CDFF0B220DF209410DF2444012F09E
:10D7D0001BFB20210DF2044012F02FFB0B220DF257
:10D7E00044410DF2044012F00FFB0DF224410DF202
:10D7F000444012F071FBE4A10DF2444012F029FB09
:10D800000DF204410DF2444012F023FBDEA10DF2B3
:10D81000444012F01EFB01A90DF2444012F019FB26
:10D82000052201210DF2444001F0F7FA0DF6584DA2
:10D8300010BDFBE770B590B004460E460020207086
:10D840003070D2A101A812F047FBD3A3C8223C211B
:10D8500001A8FCF7D2FF112821D1D0A101A812F014
:10D8600006FB05460DB910B070BDCEA1284612F0DA
:10D87000FEFA054605B9F6E76D1C1CB1284612F004
:10D8800034FB2070C7A1284612F0F1FA054605B90D
:10D89000E9E76D1C1EB1284612F027FB3070E2E765
:10D8A000F0B58FB0044600263C21684612F0C5FA58
:10D8B0002746002515E0EA1705EB92729210A5EBBA
:10D8C0008202022A07D0EA1705EB92729210A5EBAA
:10D8D0008202032A03D138780DF80600761C6D1CED
:10D8E0007F1C204612F0E2FAA842E4D8694620469E
:10D8F00012F0F2FA0FB0F0BD2DE9F0438FB00446FC
:10D900000D4616461F46A046A7A1204612F0AFFAC4
:10D910008046B8F1000F03D162200FB0BDE8F0835C
:10D9200008F10108444665B1A0A1404612F09FFAF3
:10D930008046B8F1000F02D10120287001E00220DA
:10D9400028709DA1204612F092FA8046B8F1000F8F
:10D9500001D16220E1E708F10308E6B13C21684605
:10D9600012F06BFA22233C224146684601F06EFE1B
:10D970006846FFF795FF684612F098FA814601461F
:10D98000684601F0F5FE6946304612F0A5FA3146C8
:10D990008AA013F005FA88A1404612F068FA804682
:10D9A000B8F1000F01D16220B7E708F1030882A1A6
:10D9B000404612F05CFA8046B8F1000F01D16220B7
:10D9C000ABE708F103082FB1222314224146384661
:10D9D00001F03CFE6120A0E710B50346002407E0FB
:10D9E0001878884201D1022010BD1C33601CC4B2DB
:10D9F0009442F5DB0120F7E72DE9F04FADF21C4D25
:10DA000004460D4616461F46E81B00F0FF0AC7EB0A
:10DA1000C70004EB800B4FF0000845E03A4608F1E0
:10DA20000100C1B22046FFF7D7FF022800D137E03E
:10DA300065A107A812F050FA08F1010106A801F04B
:10DA40009AFD06A907A812F004FA62A107A812F02D
:10DA500000FA43A340F6B8324FF4806107A8FCF700
:10DA6000CCFE11281BD101AB0BF10202511E07A8FD
:10DA7000FFF742FF8146B9F1610F10D10020CBF8CA
:10DA8000180008F101008BF80000AAF1010000F075
:10DA9000FF0A0BF11C0BBAF1000F00D106E000BF2A
:10DAA00008F1010000F0FF08B045B7DB00BF0DF240
:10DAB0001C4DBDE8F08FF0B5FFB004460D4616468C
:10DAC000002726E040A102A812F0C3F9297801A896
:10DAD00001F051FD6D1C01A902A812F0BAF93DA197
